{"abi":[{"type":"constructor","inputs":[],"stateMutability":"nonpayable"},{"type":"function","name":"authoriseSubmitter","inputs":[{"name":"submitter","type":"address","internalType":"address"}],"outputs":[],"stateMutability":"nonpayable"},{"type":"function","name":"authorisedSubmitters","inputs":[{"name":"","type":"address","internalType":"address"}],"outputs":[{"name":"","type":"bool","internalType":"bool"}],"stateMutability":"view"},{"type":"function","name":"flaggedTargets","inputs":[{"name":"","type":"bytes32","internalType":"bytes32"}],"outputs":[{"name":"","type":"bool","internalType":"bool"}],"stateMutability":"view"},{"type":"function","name":"getIndicator","inputs":[{"name":"id","type":"uint256","internalType":"uint256"}],"outputs":[{"name":"","type":"tuple","internalType":"struct ThreatRegistry.Indicator","components":[{"name":"id","type":"uint256","internalType":"uint256"},{"name":"targetHash","type":"bytes32","internalType":"bytes32"},{"name":"indicatorType","type":"uint8","internalType":"enum ThreatRegistry.IndicatorType"},{"name":"severity","type":"uint8","internalType":"enum ThreatRegistry.Severity"},{"name":"evidenceHash","type":"bytes32","internalType":"bytes32"},{"name":"timestamp","type":"uint256","internalType":"uint256"},{"name":"submitter","type":"address","internalType":"address"},{"name":"status","type":"uint8","internalType":"enum ThreatRegistry.Status"},{"name":"reasoning","type":"string","internalType":"string"}]}],"stateMutability":"view"},{"type":"function","name":"getIndicatorsForTarget","inputs":[{"name":"targetHash","type":"bytes32","internalType":"bytes32"}],"outputs":[{"name":"","type":"uint256[]","internalType":"uint256[]"}],"stateMutability":"view"},{"type":"function","name":"getTotalIndicators","inputs":[],"outputs":[{"name":"","type":"uint256","internalType":"uint256"}],"stateMutability":"view"},{"type":"function","name":"indicatorCount","inputs":[],"outputs":[{"name":"","type":"uint256","internalType":"uint256"}],"stateMutability":"view"},{"type":"function","name":"indicators","inputs":[{"name":"","type":"uint256","internalType":"uint256"}],"outputs":[{"name":"id","type":"uint256","internalType":"uint256"},{"name":"targetHash","type":"bytes32","internalType":"bytes32"},{"name":"indicatorType","type":"uint8","internalType":"enum ThreatRegistry.IndicatorType"},{"name":"severity","type":"uint8","internalType":"enum ThreatRegistry.Severity"},{"name":"evidenceHash","type":"bytes32","internalType":"bytes32"},{"name":"timestamp","type":"uint256","internalType":"uint256"},{"name":"submitter","type":"address","internalType":"address"},{"name":"status","type":"uint8","internalType":"enum ThreatRegistry.Status"},{"name":"reasoning","type":"string","internalType":"string"}],"stateMutability":"view"},{"type":"function","name":"indicatorsByTarget","inputs":[{"name":"","type":"bytes32","internalType":"bytes32"},{"name":"","type":"uint256","internalType":"uint256"}],"outputs":[{"name":"","type":"uint256","internalType":"uint256"}],"stateMutability":"view"},{"type":"function","name":"isFlagged","inputs":[{"name":"targetHash","type":"bytes32","internalType":"bytes32"}],"outputs":[{"name":"flagged","type":"bool","internalType":"bool"},{"name":"severity","type":"uint8","internalType":"enum ThreatRegistry.Severity"},{"name":"count","type":"uint256","internalType":"uint256"}],"stateMutability":"view"},{"type":"function","name":"logQuery","inputs":[{"name":"targetHash","type":"bytes32","internalType":"bytes32"}],"outputs":[],"stateMutability":"nonpayable"},{"type":"function","name":"maxSeverityByTarget","inputs":[{"name":"","type":"bytes32","internalType":"bytes32"}],"outputs":[{"name":"","type":"uint8","internalType":"enum ThreatRegistry.Severity"}],"stateMutability":"view"},{"type":"function","name":"owner","inputs":[],"outputs":[{"name":"","type":"address","internalType":"address"}],"stateMutability":"view"},{"type":"function","name":"submitIndicator","inputs":[{"name":"targetHash","type":"bytes32","internalType":"bytes32"},{"name":"indicatorType","type":"uint8","internalType":"enum ThreatRegistry.IndicatorType"},{"name":"severity","type":"uint8","internalType":"enum ThreatRegistry.Severity"},{"name":"evidenceHash","type":"bytes32","internalType":"bytes32"},{"name":"reasoning","type":"string","internalType":"string"}],"outputs":[{"name":"","type":"uint256","internalType":"uint256"}],"stateMutability":"nonpayable"},{"type":"event","name":"IndicatorRejected","inputs":[{"name":"id","type":"uint256","indexed":true,"internalType":"uint256"}],"anonymous":false},{"type":"event","name":"IndicatorSubmitted","inputs":[{"name":"id","type":"uint256","indexed":true,"internalType":"uint256"},{"name":"targetHash","type":"bytes32","indexed":true,"internalType":"bytes32"},{"name":"indicatorType","type":"uint8","indexed":false,"internalType":"enum ThreatRegistry.IndicatorType"},{"name":"severity","type":"uint8","indexed":false,"internalType":"enum ThreatRegistry.Severity"},{"name":"submitter","type":"address","indexed":false,"internalType":"address"}],"anonymous":false},{"type":"event","name":"IndicatorValidated","inputs":[{"name":"id","type":"uint256","indexed":true,"internalType":"uint256"}],"anonymous":false},{"type":"event","name":"QueryExecuted","inputs":[{"name":"targetHash","type":"bytes32","indexed":true,"internalType":"bytes32"},{"name":"flagged","type":"bool","indexed":false,"internalType":"bool"},{"name":"querier","type":"address","indexed":false,"internalType":"address"}],"anonymous":false},{"type":"event","name":"TargetFlagged","inputs":[{"name":"targetHash","type":"bytes32","indexed":true,"internalType":"bytes32"},{"name":"severity","type":"uint8","indexed":false,"internalType":"enum ThreatRegistry.Severity"}],"anonymous":false}],"bytecode":{"object":"0x6080604052348015600e575f5ffd5b503360055f6101000a81548173ffffffffffffffffffffffffffffffffffffffff021916908373ffffffffffffffffffffffffffffffffffffffff160217905550600160065f3373ffffffffffffffffffffffffffffffffffffffff1673ffffffffffffffffffffffffffffffffffffffff1681526020019081526020015f205f6101000a81548160ff021916908315150217905550611b64806100b15f395ff3fe608060405234801561000f575f5ffd5b50600436106100e8575f3560e01c806392c871d21161008a578063e067fd6911610064578063e067fd691461028c578063e5cd931c146102bc578063ecf9401a146102d8578063ede628f714610308576100e8565b806392c871d214610204578063bf2dde381461023c578063c982395b1461026e576100e8565b8063313c74c3116100c6578063313c74c3146101685780635584d8f5146101985780638b5ea3a3146101c85780638da5cb5b146101e6576100e8565b80631ee722ec146100ec578063202163c91461011c5780632d1e28781461014c575b5f5ffd5b61010660048036038101906101019190610f0d565b610338565b6040516101139190610fbb565b60405180910390f35b61013660048036038101906101319190610fd4565b610792565b60405161014391906110b6565b60405180910390f35b61016660048036038101906101619190610fd4565b6107f9565b005b610182600480360381019061017d9190611100565b610853565b60405161018f91906113aa565b60405180910390f35b6101b260048036038101906101ad9190610fd4565b610a8a565b6040516101bf91906113d9565b60405180910390f35b6101d0610aa7565b6040516101dd9190610fbb565b60405180910390f35b6101ee610aac565b6040516101fb9190611401565b60405180910390f35b61021e60048036038101906102199190611100565b610ad1565b6040516102339998979695949392919061148f565b60405180910390f35b61025660048036038101906102519190610fd4565b610be6565b6040516102659392919061153b565b60405180910390f35b610276610c47565b6040516102839190610fbb565b60405180910390f35b6102a660048036038101906102a19190610fd4565b610c4f565b6040516102b39190611570565b60405180910390f35b6102d660048036038101906102d191906115b3565b610c6c565b005b6102f260048036038101906102ed91906115de565b610d53565b6040516102ff9190610fbb565b60405180910390f35b610322600480360381019061031d91906115b3565b610d7e565b60405161032f9190611570565b60405180910390f35b5f60065f3373ffffffffffffffffffffffffffffffffffffffff1673ffffffffffffffffffffffffffffffffffffffff1681526020019081526020015f205f9054906101000a900460ff16806103da575060055f9054906101000a900473ffffffffffffffffffffffffffffffffffffffff1673ffffffffffffffffffffffffffffffffffffffff163373ffffffffffffffffffffffffffffffffffffffff16145b610419576040517f08c379a000000000000000000000000000000000000000000000000000000000815260040161041090611666565b60405180910390fd5b5f5f81548092919061042a906116b1565b91905055506040518061012001604052805f54815260200188815260200187600581111561045b5761045a61113a565b5b81526020018660038111156104735761047261113a565b5b81526020018581526020014281526020013373ffffffffffffffffffffffffffffffffffffffff168152602001600160038111156104b4576104b361113a565b5b815260200184848080601f0160208091040260200160405190810160405280939291908181526020018383808284375f81840152601f19601f8201169050808301925050505050505081525060015f5f5481526020019081526020015f205f820151815f0155602082015181600101556040820151816002015f6101000a81548160ff0219169083600581111561054e5761054d61113a565b5b021790555060608201518160020160016101000a81548160ff0219169083600381111561057e5761057d61113a565b5b02179055506080820151816003015560a0820151816004015560c0820151816005015f6101000a81548173ffffffffffffffffffffffffffffffffffffffff021916908373ffffffffffffffffffffffffffffffffffffffff16021790555060e08201518160050160146101000a81548160ff021916908360038111156106085761060761113a565b5b02179055506101008201518160060190816106239190611933565b5090505060025f8881526020019081526020015f205f54908060018154018082558091505060019003905f5260205f20015f9091909190915055600160035f8981526020019081526020015f205f6101000a81548160ff02191690831515021790555060045f8881526020019081526020015f205f9054906101000a900460ff1660038111156106b6576106b561113a565b5b60ff168560038111156106cc576106cb61113a565b5b60ff16111561070e578460045f8981526020019081526020015f205f6101000a81548160ff021916908360038111156107085761070761113a565b5b02179055505b865f547f9aa85c7537e3be56b41b77ee76319bdd9e5457e6a2e9c76c1134f554ea359b6a88883360405161074493929190611a02565b60405180910390a3867fc98c9bbf0f636d4ffe0d3c603c8d41639e3cd3f52526a3bba40a48522762bb9b8660405161077c91906113d9565b60405180910390a25f5490509695505050505050565b606060025f8381526020019081526020015f208054806020026020016040519081016040528092919081815260200182805480156107ed57602002820191905f5260205f20905b8154815260200190600101908083116107d9575b50505050509050919050565b807f12cafafe8e7f57110dd69fc6053cd6944cef6cc804dbb993b2a2985c8e0a5f2060035f8481526020019081526020015f205f9054906101000a900460ff1633604051610848929190611a37565b60405180910390a250565b61085b610d9b565b5f8211801561086b57505f548211155b6108aa576040517f08c379a00000000000000000000000000000000000000000000000000000000081526004016108a190611aa8565b60405180910390fd5b60015f8381526020019081526020015f20604051806101200160405290815f820154815260200160018201548152602001600282015f9054906101000a900460ff1660058111156108fe576108fd61113a565b5b60058111156109105761090f61113a565b5b81526020016002820160019054906101000a900460ff1660038111156109395761093861113a565b5b600381111561094b5761094a61113a565b5b81526020016003820154815260200160048201548152602001600582015f9054906101000a900473ffffffffffffffffffffffffffffffffffffffff1673ffffffffffffffffffffffffffffffffffffffff1673ffffffffffffffffffffffffffffffffffffffff1681526020016005820160149054906101000a900460ff1660038111156109dd576109dc61113a565b5b60038111156109ef576109ee61113a565b5b8152602001600682018054610a0390611752565b80601f0160208091040260200160405190810160405280929190818152602001828054610a2f90611752565b8015610a7a5780601f10610a5157610100808354040283529160200191610a7a565b820191905f5260205f20905b815481529060010190602001808311610a5d57829003601f168201915b5050505050815250509050919050565b6004602052805f5260405f205f915054906101000a900460ff1681565b5f5481565b60055f9054906101000a900473ffffffffffffffffffffffffffffffffffffffff1681565b6001602052805f5260405f205f91509050805f015490806001015490806002015f9054906101000a900460ff16908060020160019054906101000a900460ff1690806003015490806004015490806005015f9054906101000a900473ffffffffffffffffffffffffffffffffffffffff16908060050160149054906101000a900460ff1690806006018054610b6590611752565b80601f0160208091040260200160405190810160405280929190818152602001828054610b9190611752565b8015610bdc5780601f10610bb357610100808354040283529160200191610bdc565b820191905f5260205f20905b815481529060010190602001808311610bbf57829003601f168201915b5050505050905089565b5f5f5f60035f8581526020019081526020015f205f9054906101000a900460ff1660045f8681526020019081526020015f205f9054906101000a900460ff1660025f8781526020019081526020015f20805490509250925092509193909250565b5f5f54905090565b6003602052805f5260405f205f915054906101000a900460ff1681565b60055f9054906101000a900473ffffffffffffffffffffffffffffffffffffffff1673ffffffffffffffffffffffffffffffffffffffff163373ffffffffffffffffffffffffffffffffffffffff1614610cfb576040517f08c379a0000000000000000000000000000000000000000000000000000000008152600401610cf290611b10565b60405180910390fd5b600160065f8373ffffffffffffffffffffffffffffffffffffffff1673ffffffffffffffffffffffffffffffffffffffff1681526020019081526020015f205f6101000a81548160ff02191690831515021790555050565b6002602052815f5260405f208181548110610d6c575f80fd5b905f5260205f20015f91509150505481565b6006602052805f5260405f205f915054906101000a900460ff1681565b6040518061012001604052805f81526020015f81526020015f6005811115610dc657610dc561113a565b5b81526020015f6003811115610dde57610ddd61113a565b5b81526020015f81526020015f81526020015f73ffffffffffffffffffffffffffffffffffffffff1681526020015f6003811115610e1e57610e1d61113a565b5b8152602001606081525090565b5f5ffd5b5f5ffd5b5f819050919050565b610e4581610e33565b8114610e4f575f5ffd5b50565b5f81359050610e6081610e3c565b92915050565b60068110610e72575f5ffd5b50565b5f81359050610e8381610e66565b92915050565b60048110610e95575f5ffd5b50565b5f81359050610ea681610e89565b92915050565b5f5ffd5b5f5ffd5b5f5ffd5b5f5f83601f840112610ecd57610ecc610eac565b5b8235905067ffffffffffffffff811115610eea57610ee9610eb0565b5b602083019150836001820283011115610f0657610f05610eb4565b5b9250929050565b5f5f5f5f5f5f60a08789031215610f2757610f26610e2b565b5b5f610f3489828a01610e52565b9650506020610f4589828a01610e75565b9550506040610f5689828a01610e98565b9450506060610f6789828a01610e52565b935050608087013567ffffffffffffffff811115610f8857610f87610e2f565b5b610f9489828a01610eb8565b92509250509295509295509295565b5f819050919050565b610fb581610fa3565b82525050565b5f602082019050610fce5f830184610fac565b92915050565b5f60208284031215610fe957610fe8610e2b565b5b5f610ff684828501610e52565b91505092915050565b5f81519050919050565b5f82825260208201905092915050565b5f819050602082019050919050565b61103181610fa3565b82525050565b5f6110428383611028565b60208301905092915050565b5f602082019050919050565b5f61106482610fff565b61106e8185611009565b935061107983611019565b805f5b838110156110a95781516110908882611037565b975061109b8361104e565b92505060018101905061107c565b5085935050505092915050565b5f6020820190508181035f8301526110ce818461105a565b905092915050565b6110df81610fa3565b81146110e9575f5ffd5b50565b5f813590506110fa816110d6565b92915050565b5f6020828403121561111557611114610e2b565b5b5f611122848285016110ec565b91505092915050565b61113481610e33565b82525050565b7f4e487b71000000000000000000000000000000000000000000000000000000005f52602160045260245ffd5b600681106111785761117761113a565b5b50565b5f81905061118882611167565b919050565b5f6111978261117b565b9050919050565b6111a78161118d565b82525050565b600481106111be576111bd61113a565b5b50565b5f8190506111ce826111ad565b919050565b5f6111dd826111c1565b9050919050565b6111ed816111d3565b82525050565b5f73ffffffffffffffffffffffffffffffffffffffff82169050919050565b5f61121c826111f3565b9050919050565b61122c81611212565b82525050565b600481106112435761124261113a565b5b50565b5f81905061125382611232565b919050565b5f61126282611246565b9050919050565b61127281611258565b82525050565b5f81519050919050565b5f82825260208201905092915050565b8281835e5f83830152505050565b5f601f19601f8301169050919050565b5f6112ba82611278565b6112c48185611282565b93506112d4818560208601611292565b6112dd816112a0565b840191505092915050565b5f61012083015f8301516112fe5f860182611028565b506020830151611311602086018261112b565b506040830151611324604086018261119e565b50606083015161133760608601826111e4565b50608083015161134a608086018261112b565b5060a083015161135d60a0860182611028565b5060c083015161137060c0860182611223565b5060e083015161138360e0860182611269565b5061010083015184820361010086015261139d82826112b0565b9150508091505092915050565b5f6020820190508181035f8301526113c281846112e8565b905092915050565b6113d3816111d3565b82525050565b5f6020820190506113ec5f8301846113ca565b92915050565b6113fb81611212565b82525050565b5f6020820190506114145f8301846113f2565b92915050565b61142381610e33565b82525050565b6114328161118d565b82525050565b61144181611258565b82525050565b5f82825260208201905092915050565b5f61146182611278565b61146b8185611447565b935061147b818560208601611292565b611484816112a0565b840191505092915050565b5f610120820190506114a35f83018c610fac565b6114b0602083018b61141a565b6114bd604083018a611429565b6114ca60608301896113ca565b6114d7608083018861141a565b6114e460a0830187610fac565b6114f160c08301866113f2565b6114fe60e0830185611438565b8181036101008301526115118184611457565b90509a9950505050505050505050565b5f8115159050919050565b61153581611521565b82525050565b5f60608201905061154e5f83018661152c565b61155b60208301856113ca565b6115686040830184610fac565b949350505050565b5f6020820190506115835f83018461152c565b92915050565b61159281611212565b811461159c575f5ffd5b50565b5f813590506115ad81611589565b92915050565b5f602082840312156115c8576115c7610e2b565b5b5f6115d58482850161159f565b91505092915050565b5f5f604083850312156115f4576115f3610e2b565b5b5f61160185828601610e52565b9250506020611612858286016110ec565b9150509250929050565b7f4e6f7420617574686f72697365640000000000000000000000000000000000005f82015250565b5f611650600e83611447565b915061165b8261161c565b602082019050919050565b5f6020820190508181035f83015261167d81611644565b9050919050565b7f4e487b71000000000000000000000000000000000000000000000000000000005f52601160045260245ffd5b5f6116bb82610fa3565b91507fffffffffffffffffffffffffffffffffffffffffffffffffffffffffffffffff82036116ed576116ec611684565b5b600182019050919050565b7f4e487b71000000000000000000000000000000000000000000000000000000005f52604160045260245ffd5b7f4e487b71000000000000000000000000000000000000000000000000000000005f52602260045260245ffd5b5f600282049050600182168061176957607f821691505b60208210810361177c5761177b611725565b5b50919050565b5f819050815f5260205f209050919050565b5f6020601f8301049050919050565b5f82821b905092915050565b5f600883026117de7fffffffffffffffffffffffffffffffffffffffffffffffffffffffffffffffff826117a3565b6117e886836117a3565b95508019841693508086168417925050509392505050565b5f819050919050565b5f61182361181e61181984610fa3565b611800565b610fa3565b9050919050565b5f819050919050565b61183c83611809565b6118506118488261182a565b8484546117af565b825550505050565b5f5f905090565b611867611858565b611872818484611833565b505050565b5f5b828110156118985761188d5f82840161185f565b600181019050611879565b505050565b601f8211156118eb57828211156118ea576118b781611782565b6118c083611794565b6118c985611794565b60208610156118d6575f90505b8083016118e582840382611877565b505050505b5b505050565b5f82821c905092915050565b5f61190b5f19846008026118f0565b1980831691505092915050565b5f61192383836118fc565b9150826002028217905092915050565b61193c82611278565b67ffffffffffffffff811115611955576119546116f8565b5b61195f8254611752565b61196a82828561189d565b5f60209050601f83116001811461199b575f8415611989578287015190505b6119938582611918565b8655506119fa565b601f1984166119a986611782565b5f5b828110156119d0578489015182556001820191506020850194506020810190506119ab565b868310156119ed57848901516119e9601f8916826118fc565b8355505b6001600288020188555050505b505050505050565b5f606082019050611a155f830186611429565b611a2260208301856113ca565b611a2f60408301846113f2565b949350505050565b5f604082019050611a4a5f83018561152c565b611a5760208301846113f2565b9392505050565b7f496e76616c696420696e64696361746f722049440000000000000000000000005f82015250565b5f611a92601483611447565b9150611a9d82611a5e565b602082019050919050565b5f6020820190508181035f830152611abf81611a86565b9050919050565b7f4e6f74206f776e657200000000000000000000000000000000000000000000005f82015250565b5f611afa600983611447565b9150611b0582611ac6565b602082019050919050565b5f6020820190508181035f830152611b2781611aee565b905091905056fea26469706673582212204b0cff1cd3c8bca36ebab543316b86518e7d7267c6d4abf6dfdba6cb9fe5652764736f6c63430008230033","linkReferences":{}},"methodIdentifiers":{"authoriseSubmitter(address)":"e5cd931c","authorisedSubmitters(address)":"ede628f7","flaggedTargets(bytes32)":"e067fd69","getIndicator(uint256)":"313c74c3","getIndicatorsForTarget(bytes32)":"202163c9","getTotalIndicators()":"c982395b","indicatorCount()":"8b5ea3a3","indicators(uint256)":"92c871d2","indicatorsByTarget(bytes32,uint256)":"ecf9401a","isFlagged(bytes32)":"bf2dde38","logQuery(bytes32)":"2d1e2878","maxSeverityByTarget(bytes32)":"5584d8f5","owner()":"8da5cb5b","submitIndicator(bytes32,uint8,uint8,bytes32,string)":"1ee722ec"},"id":23}